{
  "_format": "hh-sol-artifact-1",
  "contractName": "Lottery",
  "sourceName": "contracts/Lottery.sol",
  "abi": [
    {
      "inputs": [
        {
          "internalType": "uint256",
          "name": "_lotteryDuration",
          "type": "uint256"
        },
        {
          "internalType": "uint256",
          "name": "_ticketPrice",
          "type": "uint256"
        },
        {
          "internalType": "uint256",
          "name": "_prizeAmount",
          "type": "uint256"
        }
      ],
      "stateMutability": "nonpayable",
      "type": "constructor"
    },
    {
      "inputs": [],
      "name": "buyLotteryTicket",
      "outputs": [],
      "stateMutability": "payable",
      "type": "function"
    },
    {
      "inputs": [],
      "name": "finishLottery",
      "outputs": [
        {
          "internalType": "address payable",
          "name": "winnerAddress",
          "type": "address"
        }
      ],
      "stateMutability": "nonpayable",
      "type": "function"
    },
    {
      "inputs": [],
      "name": "lotteryDuration",
      "outputs": [
        {
          "internalType": "uint256",
          "name": "",
          "type": "uint256"
        }
      ],
      "stateMutability": "view",
      "type": "function"
    },
    {
      "inputs": [],
      "name": "manager",
      "outputs": [
        {
          "internalType": "address",
          "name": "",
          "type": "address"
        }
      ],
      "stateMutability": "view",
      "type": "function"
    },
    {
      "inputs": [
        {
          "internalType": "uint256",
          "name": "",
          "type": "uint256"
        }
      ],
      "name": "players",
      "outputs": [
        {
          "internalType": "address",
          "name": "",
          "type": "address"
        }
      ],
      "stateMutability": "view",
      "type": "function"
    },
    {
      "inputs": [],
      "name": "prizeAmount",
      "outputs": [
        {
          "internalType": "uint256",
          "name": "",
          "type": "uint256"
        }
      ],
      "stateMutability": "view",
      "type": "function"
    },
    {
      "inputs": [],
      "name": "start",
      "outputs": [
        {
          "internalType": "uint256",
          "name": "",
          "type": "uint256"
        }
      ],
      "stateMutability": "view",
      "type": "function"
    },
    {
      "inputs": [],
      "name": "ticketPrice",
      "outputs": [
        {
          "internalType": "uint256",
          "name": "",
          "type": "uint256"
        }
      ],
      "stateMutability": "view",
      "type": "function"
    }
  ],
  "bytecode": "0x60806040523480156200001157600080fd5b5060405162001697380380620016978339818101604052810190620000379190620004b4565b336000806101000a81548173ffffffffffffffffffffffffffffffffffffffff021916908373ffffffffffffffffffffffffffffffffffffffff16021790555082600281905550816003819055508060048190555042600581905550620000de6040518060400160405280601481526020017f4465706c6f79696e672061204c6f74746572793a0000000000000000000000008152506200028560201b6200066b1760201c565b6200014a6040518060400160405280600881526020017f6d616e616765723a00000000000000000000000000000000000000000000000081525060008054906101000a900473ffffffffffffffffffffffffffffffffffffffff166200032860201b620007041760201c565b620001966040518060400160405280601081526020017f6c6f74746572794475726174696f6e3a0000000000000000000000000000000081525084620003ce60201b620007a01760201c565b620001e26040518060400160405280600c81526020017f7469636b657450726963653a000000000000000000000000000000000000000081525083620003ce60201b620007a01760201c565b6200022e6040518060400160405280600c81526020017f7072697a65416d6f756e743a000000000000000000000000000000000000000081525082620003ce60201b620007a01760201c565b6200027c6040518060400160405280600681526020017f73746172743a0000000000000000000000000000000000000000000000000000815250600554620003ce60201b620007a01760201c565b505050620006b4565b62000325816040516024016200029c91906200056d565b6040516020818303038152906040527f41304fac000000000000000000000000000000000000000000000000000000007bffffffffffffffffffffffffffffffffffffffffffffffffffffffff19166020820180517bffffffffffffffffffffffffffffffffffffffffffffffffffffffff83818316178352505050506200047460201b60201c565b50565b620003ca82826040516024016200034192919062000591565b6040516020818303038152906040527f319af333000000000000000000000000000000000000000000000000000000007bffffffffffffffffffffffffffffffffffffffffffffffffffffffff19166020820180517bffffffffffffffffffffffffffffffffffffffffffffffffffffffff83818316178352505050506200047460201b60201c565b5050565b620004708282604051602401620003e7929190620005c5565b6040516020818303038152906040527f9710a9d0000000000000000000000000000000000000000000000000000000007bffffffffffffffffffffffffffffffffffffffffffffffffffffffff19166020820180517bffffffffffffffffffffffffffffffffffffffffffffffffffffffff83818316178352505050506200047460201b60201c565b5050565b60008151905060006a636f6e736f6c652e6c6f679050602083016000808483855afa5050505050565b600081519050620004ae816200069a565b92915050565b600080600060608486031215620004ca57600080fd5b6000620004da868287016200049d565b9350506020620004ed868287016200049d565b925050604062000500868287016200049d565b9150509250925092565b620005158162000615565b82525050565b60006200052882620005f9565b62000534818562000604565b93506200054681856020860162000653565b620005518162000689565b840191505092915050565b620005678162000649565b82525050565b600060208201905081810360008301526200058981846200051b565b905092915050565b60006040820190508181036000830152620005ad81856200051b565b9050620005be60208301846200050a565b9392505050565b60006040820190508181036000830152620005e181856200051b565b9050620005f260208301846200055c565b9392505050565b600081519050919050565b600082825260208201905092915050565b6000620006228262000629565b9050919050565b600073ffffffffffffffffffffffffffffffffffffffff82169050919050565b6000819050919050565b60005b838110156200067357808201518184015260208101905062000656565b8381111562000683576000848401525b50505050565b6000601f19601f8301169050919050565b620006a58162000649565b8114620006b157600080fd5b50565b610fd380620006c46000396000f3fe60806040526004361061007b5760003560e01c8063785fa6271161004e578063785fa6271461012c578063a56b21ae14610157578063be9a655514610161578063f71d96cb1461018c5761007b565b80631209b1f6146100805780632c906ba2146100ab5780632d97902f146100d6578063481c6a7514610101575b600080fd5b34801561008c57600080fd5b506100956101c9565b6040516100a29190610d20565b60405180910390f35b3480156100b757600080fd5b506100c06101cf565b6040516100cd9190610be5565b60405180910390f35b3480156100e257600080fd5b506100eb61048f565b6040516100f89190610d20565b60405180910390f35b34801561010d57600080fd5b50610116610495565b6040516101239190610bca565b60405180910390f35b34801561013857600080fd5b506101416104b9565b60405161014e9190610d20565b60405180910390f35b61015f6104bf565b005b34801561016d57600080fd5b50610176610626565b6040516101839190610d20565b60405180910390f35b34801561019857600080fd5b506101b360048036038101906101ae91906109f6565b61062c565b6040516101c09190610bca565b60405180910390f35b60035481565b60008060009054906101000a900473ffffffffffffffffffffffffffffffffffffffff1673ffffffffffffffffffffffffffffffffffffffff163373ffffffffffffffffffffffffffffffffffffffff1614610260576040517f08c379a000000000000000000000000000000000000000000000000000000000815260040161025790610cc0565b60405180910390fd5b61029e6040518060400160405280601181526020017f7472792066696e6973684c6f747465727900000000000000000000000000000081525061066b565b60045447116102e2576040517f08c379a00000000000000000000000000000000000000000000000000000000081526004016102d990610d00565b60405180910390fd5b60006001805490506102f261083c565b6102fc9190610e54565b905060018181548110610338577f4e487b7100000000000000000000000000000000000000000000000000000000600052603260045260246000fd5b9060005260206000200160009054906101000a900473ffffffffffffffffffffffffffffffffffffffff1691508173ffffffffffffffffffffffffffffffffffffffff166108fc6004549081150290604051600060405180830381858888f193505050501580156103ad573d6000803e3d6000fd5b506104056040518060400160405280600f81526020017f77696e6e65722069732025732025730000000000000000000000000000000000815250838473ffffffffffffffffffffffffffffffffffffffff1631610872565b600067ffffffffffffffff811115610446577f4e487b7100000000000000000000000000000000000000000000000000000000600052604160045260246000fd5b6040519080825280602002602001820160405280156104745781602001602082028036833780820191505090505b506001908051906020019061048a92919061093a565b505090565b60025481565b60008054906101000a900473ffffffffffffffffffffffffffffffffffffffff1681565b60045481565b6104fe6040518060400160405280601381526020017f74727920627579207469636b657420666f722000000000000000000000000000815250346107a0565b600354341015610543576040517f08c379a000000000000000000000000000000000000000000000000000000000815260040161053a90610ce0565b60405180910390fd5b6105826040518060400160405280601481526020017f436f6e74726163742773206d6f6e657920697320000000000000000000000000815250476107a0565b6105c16040518060400160405280601681526020017f257320697320616464656420746f20706c61796572730000000000000000000081525033610704565b6001339080600181540180825580915050600190039060005260206000200160009091909190916101000a81548173ffffffffffffffffffffffffffffffffffffffff021916908373ffffffffffffffffffffffffffffffffffffffff160217905550565b60055481565b6001818154811061063c57600080fd5b906000526020600020016000915054906101000a900473ffffffffffffffffffffffffffffffffffffffff1681565b6107018160405160240161067f9190610c00565b6040516020818303038152906040527f41304fac000000000000000000000000000000000000000000000000000000007bffffffffffffffffffffffffffffffffffffffffffffffffffffffff19166020820180517bffffffffffffffffffffffffffffffffffffffffffffffffffffffff8381831617835250505050610911565b50565b61079c828260405160240161071a929190610c22565b6040516020818303038152906040527f319af333000000000000000000000000000000000000000000000000000000007bffffffffffffffffffffffffffffffffffffffffffffffffffffffff19166020820180517bffffffffffffffffffffffffffffffffffffffffffffffffffffffff8381831617835250505050610911565b5050565b61083882826040516024016107b6929190610c90565b6040516020818303038152906040527f9710a9d0000000000000000000000000000000000000000000000000000000007bffffffffffffffffffffffffffffffffffffffffffffffffffffffff19166020820180517bffffffffffffffffffffffffffffffffffffffffffffffffffffffff8381831617835250505050610911565b5050565b60004442600160405160200161085493929190610b91565b6040516020818303038152906040528051906020012060001c905090565b61090c83838360405160240161088a93929190610c52565b6040516020818303038152906040527f07c81217000000000000000000000000000000000000000000000000000000007bffffffffffffffffffffffffffffffffffffffffffffffffffffffff19166020820180517bffffffffffffffffffffffffffffffffffffffffffffffffffffffff8381831617835250505050610911565b505050565b60008151905060006a636f6e736f6c652e6c6f679050602083016000808483855afa5050505050565b8280548282559060005260206000209081019282156109b3579160200282015b828111156109b25782518260006101000a81548173ffffffffffffffffffffffffffffffffffffffff021916908373ffffffffffffffffffffffffffffffffffffffff1602179055509160200191906001019061095a565b5b5090506109c091906109c4565b5090565b5b808211156109dd5760008160009055506001016109c5565b5090565b6000813590506109f081610f86565b92915050565b600060208284031215610a0857600080fd5b6000610a16848285016109e1565b91505092915050565b6000610a2b8383610a55565b60208301905092915050565b610a4081610dc1565b82525050565b610a4f81610daf565b82525050565b610a5e81610daf565b82525050565b6000610a6f82610d50565b610a798185610d73565b9350610a8483610d3b565b8060005b83811015610abc57610a9982610eb4565b610aa38882610a1f565b9750610aae83610d66565b925050600181019050610a88565b5085935050505092915050565b6000610ad482610d5b565b610ade8185610d7e565b9350610aee818560208601610dfd565b610af781610ec7565b840191505092915050565b6000610b0f600c83610d7e565b9150610b1a82610ee5565b602082019050919050565b6000610b32600f83610d7e565b9150610b3d82610f0e565b602082019050919050565b6000610b55602583610d7e565b9150610b6082610f37565b604082019050919050565b610b7481610df3565b82525050565b610b8b610b8682610df3565b610e4a565b82525050565b6000610b9d8286610b7a565b602082019150610bad8285610b7a565b602082019150610bbd8284610a64565b9150819050949350505050565b6000602082019050610bdf6000830184610a46565b92915050565b6000602082019050610bfa6000830184610a37565b92915050565b60006020820190508181036000830152610c1a8184610ac9565b905092915050565b60006040820190508181036000830152610c3c8185610ac9565b9050610c4b6020830184610a46565b9392505050565b60006060820190508181036000830152610c6c8186610ac9565b9050610c7b6020830185610a46565b610c886040830184610b6b565b949350505050565b60006040820190508181036000830152610caa8185610ac9565b9050610cb96020830184610b6b565b9392505050565b60006020820190508181036000830152610cd981610b02565b9050919050565b60006020820190508181036000830152610cf981610b25565b9050919050565b60006020820190508181036000830152610d1981610b48565b9050919050565b6000602082019050610d356000830184610b6b565b92915050565b60008190508160005260206000209050919050565b600081549050919050565b600081519050919050565b6000600182019050919050565b600081905092915050565b600082825260208201905092915050565b600073ffffffffffffffffffffffffffffffffffffffff82169050919050565b6000610dba82610dd3565b9050919050565b6000610dcc82610dd3565b9050919050565b600073ffffffffffffffffffffffffffffffffffffffff82169050919050565b6000819050919050565b60005b83811015610e1b578082015181840152602081019050610e00565b83811115610e2a576000848401525b50505050565b6000610e43610e3e83610ed8565b610d8f565b9050919050565b6000819050919050565b6000610e5f82610df3565b9150610e6a83610df3565b925082610e7a57610e79610e85565b5b828206905092915050565b7f4e487b7100000000000000000000000000000000000000000000000000000000600052601260045260246000fd5b6000610ec08254610e30565b9050919050565b6000601f19601f8301169050919050565b60008160001c9050919050565b7f6d616e61676572204f6e6c790000000000000000000000000000000000000000600082015250565b7f5072696365206973206869676865720000000000000000000000000000000000600082015250565b7f646f65736e2774206861766520656e6f756768206d6f6e657920696e2074686560008201527f2062616e6b000000000000000000000000000000000000000000000000000000602082015250565b610f8f81610df3565b8114610f9a57600080fd5b5056fea2646970667358221220918eff2afb66d910ec8ab045cc444941a30e46033309ecbe0b7c525554ca042764736f6c63430008040033",
  "linkReferences": {},
  "deployedLinkReferences": {}
}