{
    "_format": "hh-sol-artifact-1",
    "contractName": "Lottery",
    "sourceName": "contracts/Lottery.sol",
    "abi": [
        {
            "inputs": [
                {
                    "internalType": "uint256",
                    "name": "_lotteryDuration",
                    "type": "uint256"
                },
                {
                    "internalType": "uint256",
                    "name": "_ticketPrice",
                    "type": "uint256"
                },
                {
                    "internalType": "uint256",
                    "name": "_prizeAmount",
                    "type": "uint256"
                }
            ],
            "stateMutability": "nonpayable",
            "type": "constructor"
        },
        {
            "anonymous": false,
            "inputs": [
                {
                    "indexed": false,
                    "internalType": "address",
                    "name": "winner",
                    "type": "address"
                }
            ],
            "name": "LotteryFinish",
            "type": "event"
        },
        {
            "anonymous": false,
            "inputs": [
                {
                    "indexed": false,
                    "internalType": "address",
                    "name": "player",
                    "type": "address"
                }
            ],
            "name": "LotteryTicketPurchased",
            "type": "event"
        },
        {
            "inputs": [],
            "name": "buyLotteryTicket",
            "outputs": [],
            "stateMutability": "payable",
            "type": "function"
        },
        {
            "inputs": [
                {
                    "internalType": "bytes32",
                    "name": "c__0x68cb8720",
                    "type": "bytes32"
                }
            ],
            "name": "c_0x68cb8720",
            "outputs": [],
            "stateMutability": "pure",
            "type": "function"
        },
        {
            "inputs": [],
            "name": "end",
            "outputs": [
                {
                    "internalType": "uint256",
                    "name": "",
                    "type": "uint256"
                }
            ],
            "stateMutability": "view",
            "type": "function"
        },
        {
            "inputs": [],
            "name": "finishLottery",
            "outputs": [],
            "stateMutability": "nonpayable",
            "type": "function"
        },
        {
            "inputs": [],
            "name": "getPlayers",
            "outputs": [
                {
                    "internalType": "address[]",
                    "name": "",
                    "type": "address[]"
                }
            ],
            "stateMutability": "view",
            "type": "function"
        },
        {
            "inputs": [],
            "name": "getTimeStamp",
            "outputs": [
                {
                    "internalType": "uint256",
                    "name": "",
                    "type": "uint256"
                }
            ],
            "stateMutability": "view",
            "type": "function"
        },
        {
            "inputs": [],
            "name": "isAlive",
            "outputs": [
                {
                    "internalType": "bool",
                    "name": "",
                    "type": "bool"
                }
            ],
            "stateMutability": "view",
            "type": "function"
        },
        {
            "inputs": [],
            "name": "isEnded",
            "outputs": [
                {
                    "internalType": "bool",
                    "name": "",
                    "type": "bool"
                }
            ],
            "stateMutability": "view",
            "type": "function"
        },
        {
            "inputs": [],
            "name": "isManager",
            "outputs": [
                {
                    "internalType": "bool",
                    "name": "",
                    "type": "bool"
                }
            ],
            "stateMutability": "view",
            "type": "function"
        },
        {
            "inputs": [],
            "name": "lotteryDuration",
            "outputs": [
                {
                    "internalType": "uint256",
                    "name": "",
                    "type": "uint256"
                }
            ],
            "stateMutability": "view",
            "type": "function"
        },
        {
            "inputs": [],
            "name": "prizeAmount",
            "outputs": [
                {
                    "internalType": "uint256",
                    "name": "",
                    "type": "uint256"
                }
            ],
            "stateMutability": "view",
            "type": "function"
        },
        {
            "inputs": [],
            "name": "start",
            "outputs": [
                {
                    "internalType": "uint256",
                    "name": "",
                    "type": "uint256"
                }
            ],
            "stateMutability": "view",
            "type": "function"
        },
        {
            "inputs": [],
            "name": "ticketPrice",
            "outputs": [
                {
                    "internalType": "uint256",
                    "name": "",
                    "type": "uint256"
                }
            ],
            "stateMutability": "view",
            "type": "function"
        },
        {
            "stateMutability": "payable",
            "type": "receive"
        }
    ],
    "bytecode": "0x60806040526001600560006101000a81548160ff0219169083151502179055503480156200002c57600080fd5b5060405162001fcb38038062001fcb83398181016040528101906200005291906200038c565b620000867fc4c36d7cb2030e72881602613f2dfd26091d11d3b110446789e2dd02f1483de360001b6200037260201b60201c565b620000ba7feebd1fc7c79a7ab6a516127f481ba51901c3f1a4623db341cf7679eb0b14e55060001b6200037260201b60201c565b620000ee7f7bc099d24d8391bed280ef99ac15195be49bec29923da7ed801bb5af54b5908160001b6200037260201b60201c565b33600560016101000a81548173ffffffffffffffffffffffffffffffffffffffff021916908373ffffffffffffffffffffffffffffffffffffffff160217905550620001637f3722dd25ae748105063bbcc0141be309ad8a7a819c0f8f2c29f4b8bfda14315160001b6200037260201b60201c565b620001977f70953dac74f0050c2f10775667caae565402f0d9c32e930fed9ae234bb20296660001b6200037260201b60201c565b82600081905550620001d27f8133aef6878ca286c0275ac28689bdda9740776759096fda9eda3aa353597c4260001b6200037260201b60201c565b620002067f6feca03c97be7954aecc68e939e896b1e67e959fd7818dba559d075cff7df44260001b6200037260201b60201c565b81600181905550620002417f1f13902a0219d9bbbd9ca8dd4cded3ce810a3515940f2dad341b5f82a3594a0360001b6200037260201b60201c565b620002757f4a8929c0674465ace94212f2598590b8b9a534851f4e1d956286abe1471f62b760001b6200037260201b60201c565b80600281905550620002b07f60ae98c5d03701c35301de8394547f0ec639adb87bcf785048a107471d5cd42160001b6200037260201b60201c565b620002e47f96c95657623868f91473bdaff2663560d95aeaa334ce5a53a6f828686478665c60001b6200037260201b60201c565b426003819055506200031f7ffbf52992cb8e70fd68d2fca8b8989bdac6f28747fe2b1fd086e0e706fb840ac760001b6200037260201b60201c565b620003537f492d7d6518caf00b88a612c23122abc5422b9fed34adaa4bdd6da6cd7eb9c64d60001b6200037260201b60201c565b82600354620003639190620003e2565b60048190555050505062000492565b50565b600081519050620003868162000478565b92915050565b600080600060608486031215620003a257600080fd5b6000620003b28682870162000375565b9350506020620003c58682870162000375565b9250506040620003d88682870162000375565b9150509250925092565b6000620003ef826200043f565b9150620003fc836200043f565b9250827fffffffffffffffffffffffffffffffffffffffffffffffffffffffffffffffff0382111562000434576200043362000449565b5b828201905092915050565b6000819050919050565b7f4e487b7100000000000000000000000000000000000000000000000000000000600052601160045260246000fd5b62000483816200043f565b81146200048f57600080fd5b50565b611b2980620004a26000396000f3fe6080604052600436106100c65760003560e01c80638b5b9ccc1161007f578063be9a655511610059578063be9a655514610252578063c56a3e881461027d578063da235b22146102a8578063efbe1c1c146102d357610101565b80638b5b9ccc146101f2578063a4fd6f561461021d578063a56b21ae1461024857610101565b80631209b1f6146101065780632c906ba2146101315780632d97902f146101485780634136aa3514610173578063546d8cf21461019e578063785fa627146101c757610101565b36610101576100f77fdf39794e5abe430b396a26acc77cebad2afa5053119c71dfddc110b0e0de98c760001b6102fe565b6100ff610301565b005b600080fd5b34801561011257600080fd5b5061011b610665565b604051610128919061184f565b60405180910390f35b34801561013d57600080fd5b5061014661066b565b005b34801561015457600080fd5b5061015d61105e565b60405161016a919061184f565b60405180910390f35b34801561017f57600080fd5b50610188611064565b60405161019591906117b4565b60405180910390f35b3480156101aa57600080fd5b506101c560048036038101906101c0919061150a565b6102fe565b005b3480156101d357600080fd5b506101dc611077565b6040516101e9919061184f565b60405180910390f35b3480156101fe57600080fd5b5061020761107d565b6040516102149190611792565b60405180910390f35b34801561022957600080fd5b5061023261118f565b60405161023f91906117b4565b60405180910390f35b610250610301565b005b34801561025e57600080fd5b50610267611220565b604051610274919061184f565b60405180910390f35b34801561028957600080fd5b50610292611226565b60405161029f91906117b4565b60405180910390f35b3480156102b457600080fd5b506102bd611302565b6040516102ca919061184f565b60405180910390f35b3480156102df57600080fd5b506102e861138e565b6040516102f5919061184f565b60405180910390f35b50565b61032d7f3f7723ab58fa5173e207ae7077c5fbc5f1b42e0de4afdfa9b3c0e4b414c5abec60001b6102fe565b6103597fad52cfc1443418cb7a71152fc68251d3159bb39be5c242e033b2f99968fdab0a60001b6102fe565b6103857f1e68387a475ddbee1be41ef9009c6c70b83d0d24cd438783e92347527d6bb79160001b6102fe565b6103b17f680d21c4b2be30d14c5a0bb2696899e2eed2525c7176d354430d653597eaf06560001b6102fe565b60015434146103f5576040517f08c379a00000000000000000000000000000000000000000000000000000000081526004016103ec9061182f565b60405180910390fd5b6104217f9e22da6f30963fc964f632dcf9b9cb59d27c05c29df2b41581d2f52bd2c8ba9760001b6102fe565b61044d7fb34327648fa72248e75e13677c3141c169e050601d4a6f9c49e296c8669c838860001b6102fe565b6104797f221b017d8b6663cbae55df145124f892648409c9d258165aba39f933912105bf60001b6102fe565b6104a57f872081ba675dca2bbd8ede37a2a03b2267fbd1bb2c39b014e890611ce824f08d60001b6102fe565b6104ad61118f565b156104ed576040517f08c379a00000000000000000000000000000000000000000000000000000000081526004016104e49061180f565b60405180910390fd5b6105197f42e80bbaa5fcdc3d60cf0b893fb20f2c8a23a2efe726b86de9d017cb7137256560001b6102fe565b6105457ff7d4378d322095704afda7a521737b00c21dfc9738d717e1d57457cf52f0919b60001b6102fe565b6105717fc1c8d5f545db6fdf3a74a03e31ca516b7e96d2d331f491719e2eaff5b1fe2eec60001b6102fe565b6006339080600181540180825580915050600190039060005260206000200160009091909190916101000a81548173ffffffffffffffffffffffffffffffffffffffff021916908373ffffffffffffffffffffffffffffffffffffffff1602179055506106007f570bb88b2573682c4ae6bc86e17108ce7e131f177e57ed947139d4ed7923ae4360001b6102fe565b61062c7ff07981a16c6cbcee55d6332c84ebd827e15f4c24767a1e6ee73c87a47a56f64c60001b6102fe565b7f78f1fe1361ea33087a529164ff7e72628f02d1f91f74538ec8a77124eb9436583360405161065b919061175c565b60405180910390a1565b60015481565b6106977fced2b6c4c535f18565fcbc3f84dd49a3f5c6b728e1b2f1375bf0b43065c3251c60001b6102fe565b6106c37fb695a2848436ba5ff67f30f999c7f52ac8930c00bbc86c87e5d04d5d1ab82c9f60001b6102fe565b6106ef7ff18c3e9c9d60f492f05cdf1ab61b40cff98e1c290fdafd81df17377a95e5778360001b6102fe565b61071b7f479bfc8e3e11891c5470d5a2d73a475a927482347aa086911aaad9c8f628f20660001b6102fe565b600560019054906101000a900473ffffffffffffffffffffffffffffffffffffffff1673ffffffffffffffffffffffffffffffffffffffff163373ffffffffffffffffffffffffffffffffffffffff16146107ab576040517f08c379a00000000000000000000000000000000000000000000000000000000081526004016107a2906117cf565b60405180910390fd5b6107d77f7d901cc59a2e6af3639494565c19e60a47e616306b954776949c8d63d6c07a2b60001b6102fe565b6108037fb592f66b214d64f3f76e7869c27668585349f5ff7f179a2c4caa014d8bcb103760001b6102fe565b61082f7f6354fecc16dcfa253a82361a2550b75afb844b3a21a2bc6bd03fea586ab5450f60001b6102fe565b61085b7f6a46e4298e02bdf1d517619291b6d8231344604f4de75a13ca7cfe88ff62a1a960001b6102fe565b6108877f8635dad29687def82c2d7c1273b50739ecab7de9ae7315bdc2e89702f782130f60001b6102fe565b6108b37ff441a7397155665a57f9f53fc49360adad7fb17e483a226aef8adcc76f40cadd60001b6102fe565b6108bb61118f565b6108fa576040517f08c379a00000000000000000000000000000000000000000000000000000000081526004016108f1906117ef565b60405180910390fd5b6109267fb3df87c53c53c93191f1c6c5143a976b4bc7c782670550ee7e4c42b395e3c1f760001b6102fe565b6109527f128634c76c0d535be0c64542152070799d3ece64681b1652d8b9e83877c4ebf860001b6102fe565b61097e7f0e5c5d95e0ae704559531eede1ffe185ea543a443471f1b6a7722981ccc6ac4360001b6102fe565b60006109ac7f196ffae977227967b8d5db979254c4526af978b3a8185ad81eed46327d0408fc60001b6102fe565b6109d87f968976dd2ad3f7906de02f096c30973de3d8a1b5eddd5f42981723c6dfee82e960001b6102fe565b60006006805490501115610f0f57610a127ffc0e82f136399009d1055f417efe8620fb93aa02353ccee39ea6d09f9539bb7860001b6102fe565b610a3e7fea25a549e4b22f583670365a38e0d5aff2a782ed2d2985f27425d8ab4972ef8e60001b6102fe565b610a6a7fc4c47b7a026b43d7c09df531ed9388b8981f79ba567dc555c88c7ac394891eef60001b6102fe565b6000600680549050610a7a611394565b610a8491906119b8565b9050610ab27faf35d698c4f034a194cf8cd0bdc1e283f280334bc6dde6c7180b2c0be86526e460001b6102fe565b610ade7f4b06b2eb3346e3fb309b75d10f44f1c419ce99d743b30120e4ad5041a66f78ba60001b6102fe565b60068181548110610b18577f4e487b7100000000000000000000000000000000000000000000000000000000600052603260045260246000fd5b9060005260206000200160009054906101000a900473ffffffffffffffffffffffffffffffffffffffff169150610b717f3918bde4be56b802998d3c4ed1f499e28b338d515bcccc317383ead42cd14c4e60001b6102fe565b610b9d7f51f039b1406562204babbcb065ee9fa28a57116406468c4a200ad57bce43098960001b6102fe565b7fa1d3827f368523540ef9de63fc95fbde159608afc4a28327d34f5799c423a0df82604051610bcc9190611777565b60405180910390a1610bff7e21ad5b4a36bc7df9e8c799bcfcab64f922e1160aceda7b0db6e25bc66b94f160001b6102fe565b610c2b7fd10dba903424de52eac1e4154adcb00b5568263a0b78f2c9ddd1e9f1aaf6a49360001b6102fe565b600067ffffffffffffffff811115610c6c577f4e487b7100000000000000000000000000000000000000000000000000000000600052604160045260246000fd5b604051908082528060200260200182016040528015610c9a5781602001602082028036833780820191505090505b5060069080519060200190610cb092919061144e565b50610cdd7fa1f43c5ede804d0a01066d40a6e7926c67c70da4f190b83de1e5c4e4bbe9f81a60001b6102fe565b610d097f79f878f683cf2384d0e6ddfa609e3e994598d9910c59175f666bb2de197fb5c960001b6102fe565b6002544710610e7257610d3e7f5221f27274b1e55e6a41bc120981023994f366829d5bb8f3fe45d5156cefaa8760001b6102fe565b610d6a7f8848e666bc0834be022043c46504a455392dbdfdf0f6f71dd28a6a18ba64d08660001b6102fe565b610d967f822db7eabbee356d0d3530877742e52839aa7669efd88f10e5f8bf7cfe75183060001b6102fe565b8173ffffffffffffffffffffffffffffffffffffffff166108fc6002549081150290604051600060405180830381858888f19350505050158015610dde573d6000803e3d6000fd5b50610e0b7f9e1d769cbc4abd652755331d334d4da5d51e449090c2635d45a88675c1e3e8cb60001b6102fe565b610e377f92822451aafff17a4262848e9a5ba9ca8da00a23571b09b2f437d6d8cecdbee660001b6102fe565b600560019054906101000a900473ffffffffffffffffffffffffffffffffffffffff1673ffffffffffffffffffffffffffffffffffffffff16ff5b610e9e7fd8c20aa71bba69547ea408b17e0dc84c307bae6d64cce2e988bd3ffa472fa21160001b6102fe565b610eca7f7d93e67ee033e8e094f91be4a7afcaff68774a81fc4edfb691733030470c0da860001b6102fe565b610ef67facb2be6051fd02b896ea494d717dac15087bf0513c4714901826b84897ddcdc260001b6102fe565b8173ffffffffffffffffffffffffffffffffffffffff16ff5b610f3b7f512f9dae84e3c2e8ae42f7c2a708dfbad0c95eb5e4f6f0282a9f384ac482da0460001b6102fe565b610f677f428ff732a4bb93f784a92b2cab64af10a8fcb3ace04327892eb6f1dda5608c8b60001b6102fe565b610f937f36ff9df4ed770157d068aad4985dc34f297444e38ea282ac952e6619041e9df260001b6102fe565b7fa1d3827f368523540ef9de63fc95fbde159608afc4a28327d34f5799c423a0df6000604051610fc3919061175c565b60405180910390a1610ff77ff39afc941462ddd0e7629028fa9ef2a5b7b04f7c9f1d16653c8e71f8255b46a960001b6102fe565b6110237fcc2ee75ab27c8a9e0795acc1fc237ed5f5dd1344c72ac3e294eb334c07fce2b860001b6102fe565b600560019054906101000a900473ffffffffffffffffffffffffffffffffffffffff1673ffffffffffffffffffffffffffffffffffffffff16ff5b60005481565b600560009054906101000a900460ff1681565b60025481565b60606110ab7f38f2af0d337c0d1ef97cf0d5c796d16a676c5cd45473876591f532f77eab647c60001b6102fe565b6110d77f50ec4f789f0d22bd394425fe97a7575d20dcc70949a2c3cea60b62b5ad4b21f260001b6102fe565b6111037f6ea97f7639243b7ae7ce6c47ccfd319e44d8ecd47a32d5ae80d60672abc20c5060001b6102fe565b600680548060200260200160405190810160405280929190818152602001828054801561118557602002820191906000526020600020905b8160009054906101000a900473ffffffffffffffffffffffffffffffffffffffff1673ffffffffffffffffffffffffffffffffffffffff168152602001906001019080831161113b575b5050505050905090565b60006111bd7fdbd159973b786641a5c0762a753f7dae2330acb292d38fb6e5a772cff4917bb360001b6102fe565b6111e97f924cb63d44471f07e034570f21cf2c7ba5da1b5cc7200e93f77b8c0c6782b6cc60001b6102fe565b6112157f86325e61788cd95cf4498d8f1855df2c71dbcf8a4ec509d0a68da349bfdf5bd760001b6102fe565b600454421015905090565b60035481565b60006112547fe3306ad301b626da3a5a04b6c4ac19dbdda0dceb68990784ea9f343e57c567a260001b6102fe565b6112807f32ec8724e1ab89633656a7f45d9739a1582cab47664b2059567ff189657faa9960001b6102fe565b6112ac7f7e9ece6e5cf38919f32f609d33b6d4bd4af04c7536db953895acd5707a1706d360001b6102fe565b600560019054906101000a900473ffffffffffffffffffffffffffffffffffffffff1673ffffffffffffffffffffffffffffffffffffffff163373ffffffffffffffffffffffffffffffffffffffff1614905090565b60006113307fb9b5f2ff7d620987e6321f285b7eafd5d730b5275deea791d9d334e78acc1cb160001b6102fe565b61135c7f36ed470a171a8fba6ea15c51b5e21ef5348bf34224b43ae348ad3a3e57ea1e4f60001b6102fe565b6113887f185013f8a2072e6b48078b9da06e300d496e51eef0f2a32fb606268c9de9eb0f60001b6102fe565b42905090565b60045481565b60006113c27f1ab2c2cfe3dfa9f80af2b92079603ee9e1a733fbf18bf3eee592733b782e6f8a60001b6102fe565b6113ee7fa10400357e7f6b91c2c4d73f22a1cd200ec48d609b81d0cf57b0169c00df2e4860001b6102fe565b61141a7ff3fbeb462163c5c294c1027a6afff74f3e32123397abac5d2643a3dcc2b4b22c60001b6102fe565b4442600660405160200161143093929190611723565b6040516020818303038152906040528051906020012060001c905090565b8280548282559060005260206000209081019282156114c7579160200282015b828111156114c65782518260006101000a81548173ffffffffffffffffffffffffffffffffffffffff021916908373ffffffffffffffffffffffffffffffffffffffff1602179055509160200191906001019061146e565b5b5090506114d491906114d8565b5090565b5b808211156114f15760008160009055506001016114d9565b5090565b60008135905061150481611adc565b92915050565b60006020828403121561151c57600080fd5b600061152a848285016114f5565b91505092915050565b600061153f8383611572565b60208301905092915050565b60006115578383611590565b60208301905092915050565b61156c8161195e565b82525050565b61157b8161190c565b82525050565b61158a8161190c565b82525050565b6115998161190c565b82525050565b60006115aa8261188f565b6115b481856118bf565b93506115bf8361186a565b8060005b838110156115f05781516115d78882611533565b97506115e2836118a5565b9250506001810190506115c3565b5085935050505092915050565b60006116088261189a565b61161281856118d0565b935061161d8361187a565b8060005b838110156116555761163282611a18565b61163c888261154b565b9750611647836118b2565b925050600181019050611621565b5085935050505092915050565b61166b8161191e565b82525050565b600061167e600c836118db565b915061168982611a38565b602082019050919050565b60006116a1600f836118db565b91506116ac82611a61565b602082019050919050565b60006116c4600f836118db565b91506116cf82611a8a565b602082019050919050565b60006116e7600e836118db565b91506116f282611ab3565b602082019050919050565b61170681611954565b82525050565b61171d61171882611954565b6119ae565b82525050565b600061172f828661170c565b60208201915061173f828561170c565b60208201915061174f82846115fd565b9150819050949350505050565b60006020820190506117716000830184611581565b92915050565b600060208201905061178c6000830184611563565b92915050565b600060208201905081810360008301526117ac818461159f565b905092915050565b60006020820190506117c96000830184611662565b92915050565b600060208201905081810360008301526117e881611671565b9050919050565b6000602082019050818103600083015261180881611694565b9050919050565b60006020820190508181036000830152611828816116b7565b9050919050565b60006020820190508181036000830152611848816116da565b9050919050565b600060208201905061186460008301846116fd565b92915050565b6000819050602082019050919050565b60008190508160005260206000209050919050565b600081519050919050565b600081549050919050565b6000602082019050919050565b6000600182019050919050565b600082825260208201905092915050565b600081905092915050565b600082825260208201905092915050565b600073ffffffffffffffffffffffffffffffffffffffff82169050919050565b600061191782611934565b9050919050565b60008115159050919050565b6000819050919050565b600073ffffffffffffffffffffffffffffffffffffffff82169050919050565b6000819050919050565b600061196982611970565b9050919050565b600061197b82611982565b9050919050565b600061198d82611934565b9050919050565b60006119a76119a283611a2b565b6118ec565b9050919050565b6000819050919050565b60006119c382611954565b91506119ce83611954565b9250826119de576119dd6119e9565b5b828206905092915050565b7f4e487b7100000000000000000000000000000000000000000000000000000000600052601260045260246000fd5b6000611a248254611994565b9050919050565b60008160001c9050919050565b7f6d616e61676572204f6e6c790000000000000000000000000000000000000000600082015250565b7f6973206e6f74206f766572207965740000000000000000000000000000000000600082015250565b7f4c6f7474657279206973206f7665720000000000000000000000000000000000600082015250565b7f50726963652069732077726f6e67000000000000000000000000000000000000600082015250565b611ae58161192a565b8114611af057600080fd5b5056fea26469706673582212208e7de4ed9852ceeb144c255ab0936d03fba7bb38d076b93bf3a6d5325c4817c164736f6c63430008040033",
    "linkReferences": {},
    "deployedLinkReferences": {}
}